{"abi":[{"type":"constructor","inputs":[{"name":"initialOwner","type":"address","internalType":"address"}],"stateMutability":"nonpayable"},{"type":"function","name":"_name","inputs":[],"outputs":[{"name":"","type":"string","internalType":"string"}],"stateMutability":"view"},{"type":"function","name":"_symbol","inputs":[],"outputs":[{"name":"","type":"string","internalType":"string"}],"stateMutability":"view"},{"type":"function","name":"allowance","inputs":[{"name":"owner","type":"address","internalType":"address"},{"name":"spender","type":"address","internalType":"address"}],"outputs":[{"name":"","type":"uint256","internalType":"uint256"}],"stateMutability":"view"},{"type":"function","name":"approve","inputs":[{"name":"spender","type":"address","internalType":"address"},{"name":"value","type":"uint256","internalType":"uint256"}],"outputs":[{"name":"","type":"bool","internalType":"bool"}],"stateMutability":"nonpayable"},{"type":"function","name":"balanceOf","inputs":[{"name":"account","type":"address","internalType":"address"}],"outputs":[{"name":"","type":"uint256","internalType":"uint256"}],"stateMutability":"view"},{"type":"function","name":"burn","inputs":[{"name":"_amount","type":"uint256","internalType":"uint256"}],"outputs":[],"stateMutability":"nonpayable"},{"type":"function","name":"decimals","inputs":[],"outputs":[{"name":"","type":"uint8","internalType":"uint8"}],"stateMutability":"view"},{"type":"function","name":"mint","inputs":[{"name":"_amount","type":"uint256","internalType":"uint256"}],"outputs":[],"stateMutability":"nonpayable"},{"type":"function","name":"name","inputs":[],"outputs":[{"name":"","type":"string","internalType":"string"}],"stateMutability":"view"},{"type":"function","name":"owner","inputs":[],"outputs":[{"name":"","type":"address","internalType":"address"}],"stateMutability":"view"},{"type":"function","name":"renounceOwnership","inputs":[],"outputs":[],"stateMutability":"nonpayable"},{"type":"function","name":"symbol","inputs":[],"outputs":[{"name":"","type":"string","internalType":"string"}],"stateMutability":"view"},{"type":"function","name":"totalSupply","inputs":[],"outputs":[{"name":"","type":"uint256","internalType":"uint256"}],"stateMutability":"view"},{"type":"function","name":"transfer","inputs":[{"name":"to","type":"address","internalType":"address"},{"name":"value","type":"uint256","internalType":"uint256"}],"outputs":[{"name":"","type":"bool","internalType":"bool"}],"stateMutability":"nonpayable"},{"type":"function","name":"transferFrom","inputs":[{"name":"from","type":"address","internalType":"address"},{"name":"to","type":"address","internalType":"address"},{"name":"value","type":"uint256","internalType":"uint256"}],"outputs":[{"name":"","type":"bool","internalType":"bool"}],"stateMutability":"nonpayable"},{"type":"function","name":"transferOwnership","inputs":[{"name":"newOwner","type":"address","internalType":"address"}],"outputs":[],"stateMutability":"nonpayable"},{"type":"event","name":"Approval","inputs":[{"name":"owner","type":"address","indexed":true,"internalType":"address"},{"name":"spender","type":"address","indexed":true,"internalType":"address"},{"name":"value","type":"uint256","indexed":false,"internalType":"uint256"}],"anonymous":false},{"type":"event","name":"Burn","inputs":[{"name":"amount","type":"uint256","indexed":true,"internalType":"uint256"}],"anonymous":false},{"type":"event","name":"Mint","inputs":[{"name":"amount","type":"uint256","indexed":true,"internalType":"uint256"}],"anonymous":false},{"type":"event","name":"OwnershipTransferred","inputs":[{"name":"previousOwner","type":"address","indexed":true,"internalType":"address"},{"name":"newOwner","type":"address","indexed":true,"internalType":"address"}],"anonymous":false},{"type":"event","name":"Transfer","inputs":[{"name":"from","type":"address","indexed":true,"internalType":"address"},{"name":"to","type":"address","indexed":true,"internalType":"address"},{"name":"value","type":"uint256","indexed":false,"internalType":"uint256"}],"anonymous":false},{"type":"error","name":"ERC20InsufficientAllowance","inputs":[{"name":"spender","type":"address","internalType":"address"},{"name":"allowance","type":"uint256","internalType":"uint256"},{"name":"needed","type":"uint256","internalType":"uint256"}]},{"type":"error","name":"ERC20InsufficientBalance","inputs":[{"name":"sender","type":"address","internalType":"address"},{"name":"balance","type":"uint256","internalType":"uint256"},{"name":"needed","type":"uint256","internalType":"uint256"}]},{"type":"error","name":"ERC20InvalidApprover","inputs":[{"name":"approver","type":"address","internalType":"address"}]},{"type":"error","name":"ERC20InvalidReceiver","inputs":[{"name":"receiver","type":"address","internalType":"address"}]},{"type":"error","name":"ERC20InvalidSender","inputs":[{"name":"sender","type":"address","internalType":"address"}]},{"type":"error","name":"ERC20InvalidSpender","inputs":[{"name":"spender","type":"address","internalType":"address"}]},{"type":"error","name":"OwnableInvalidOwner","inputs":[{"name":"owner","type":"address","internalType":"address"}]},{"type":"error","name":"OwnableUnauthorizedAccount","inputs":[{"name":"account","type":"address","internalType":"address"}]}],"bytecode":{"object":"0x608060405234801561000f575f5ffd5b5060405161190238038061190283398181016040528101906100319190610267565b806040518060400160405280600881526020017f4c754c75436f696e0000000000000000000000000000000000000000000000008152506040518060400160405280600381526020017f4c4c43000000000000000000000000000000000000000000000000000000000081525081600390816100ad91906104cf565b5080600490816100bd91906104cf565b5050505f73ffffffffffffffffffffffffffffffffffffffff168173ffffffffffffffffffffffffffffffffffffffff1603610130575f6040517f1e4fbdf700000000000000000000000000000000000000000000000000000000815260040161012791906105ad565b60405180910390fd5b61013f8161014660201b60201c565b50506105c6565b5f60055f9054906101000a900473ffffffffffffffffffffffffffffffffffffffff1690508160055f6101000a81548173ffffffffffffffffffffffffffffffffffffffff021916908373ffffffffffffffffffffffffffffffffffffffff1602179055508173ffffffffffffffffffffffffffffffffffffffff168173ffffffffffffffffffffffffffffffffffffffff167f8be0079c531659141344cd1fd0a4f28419497f9722a3daafe3b4186f6b6457e060405160405180910390a35050565b5f5ffd5b5f73ffffffffffffffffffffffffffffffffffffffff82169050919050565b5f6102368261020d565b9050919050565b6102468161022c565b8114610250575f5ffd5b50565b5f815190506102618161023d565b92915050565b5f6020828403121561027c5761027b610209565b5b5f61028984828501610253565b91505092915050565b5f81519050919050565b7f4e487b71000000000000000000000000000000000000000000000000000000005f52604160045260245ffd5b7f4e487b71000000000000000000000000000000000000000000000000000000005f52602260045260245ffd5b5f600282049050600182168061030d57607f821691505b6020821081036103205761031f6102c9565b5b50919050565b5f819050815f5260205f209050919050565b5f6020601f8301049050919050565b5f82821b905092915050565b5f600883026103827fffffffffffffffffffffffffffffffffffffffffffffffffffffffffffffffff82610347565b61038c8683610347565b95508019841693508086168417925050509392505050565b5f819050919050565b5f819050919050565b5f6103d06103cb6103c6846103a4565b6103ad565b6103a4565b9050919050565b5f819050919050565b6103e9836103b6565b6103fd6103f5826103d7565b848454610353565b825550505050565b5f5f905090565b610414610405565b61041f8184846103e0565b505050565b5b81811015610442576104375f8261040c565b600181019050610425565b5050565b601f8211156104875761045881610326565b61046184610338565b81016020851015610470578190505b61048461047c85610338565b830182610424565b50505b505050565b5f82821c905092915050565b5f6104a75f198460080261048c565b1980831691505092915050565b5f6104bf8383610498565b9150826002028217905092915050565b6104d882610292565b67ffffffffffffffff8111156104f1576104f061029c565b5b6104fb82546102f6565b610506828285610446565b5f60209050601f831160018114610537575f8415610525578287015190505b61052f85826104b4565b865550610596565b601f19841661054586610326565b5f5b8281101561056c57848901518255600182019150602085019450602081019050610547565b868310156105895784890151610585601f891682610498565b8355505b6001600288020188555050505b505050505050565b6105a78161022c565b82525050565b5f6020820190506105c05f83018461059e565b92915050565b61132f806105d35f395ff3fe608060405234801561000f575f5ffd5b50600436106100fe575f3560e01c80638da5cb5b11610095578063b09f126611610064578063b09f12661461029a578063d28d8852146102b8578063dd62ed3e146102d6578063f2fde38b14610306576100fe565b80638da5cb5b1461021257806395d89b4114610230578063a0712d681461024e578063a9059cbb1461026a576100fe565b8063313ce567116100d1578063313ce5671461019e57806342966c68146101bc57806370a08231146101d8578063715018a614610208576100fe565b806306fdde0314610102578063095ea7b31461012057806318160ddd1461015057806323b872dd1461016e575b5f5ffd5b61010a610322565b6040516101179190610f7d565b60405180910390f35b61013a6004803603810190610135919061102e565b6103b2565b6040516101479190611086565b60405180910390f35b6101586103d4565b60405161016591906110ae565b60405180910390f35b610188600480360381019061018391906110c7565b6103dd565b6040516101959190611086565b60405180910390f35b6101a661040b565b6040516101b39190611132565b60405180910390f35b6101d660048036038101906101d1919061114b565b610413565b005b6101f260048036038101906101ed9190611176565b610455565b6040516101ff91906110ae565b60405180910390f35b61021061049a565b005b61021a6104ad565b60405161022791906111b0565b60405180910390f35b6102386104d5565b6040516102459190610f7d565b60405180910390f35b6102686004803603810190610263919061114b565b610565565b005b610284600480360381019061027f919061102e565b6105a7565b6040516102919190611086565b60405180910390f35b6102a26105c9565b6040516102af9190610f7d565b60405180910390f35b6102c0610602565b6040516102cd9190610f7d565b60405180910390f35b6102f060048036038101906102eb91906111c9565b61063b565b6040516102fd91906110ae565b60405180910390f35b610320600480360381019061031b9190611176565b6106bd565b005b60606003805461033190611234565b80601f016020809104026020016040519081016040528092919081815260200182805461035d90611234565b80156103a85780601f1061037f576101008083540402835291602001916103a8565b820191905f5260205f20905b81548152906001019060200180831161038b57829003601f168201915b5050505050905090565b5f5f6103bc610741565b90506103c9818585610748565b600191505092915050565b5f600254905090565b5f5f6103e7610741565b90506103f485828561075a565b6103ff8585856107ed565b60019150509392505050565b5f6012905090565b61041b6108dd565b6104253382610964565b807fb90306ad06b2a6ff86ddc9327db583062895ef6540e62dc50add009db5b356eb60405160405180910390a250565b5f5f5f8373ffffffffffffffffffffffffffffffffffffffff1673ffffffffffffffffffffffffffffffffffffffff1681526020019081526020015f20549050919050565b6104a26108dd565b6104ab5f6109e3565b565b5f60055f9054906101000a900473ffffffffffffffffffffffffffffffffffffffff16905090565b6060600480546104e490611234565b80601f016020809104026020016040519081016040528092919081815260200182805461051090611234565b801561055b5780601f106105325761010080835404028352916020019161055b565b820191905f5260205f20905b81548152906001019060200180831161053e57829003601f168201915b5050505050905090565b61056d6108dd565b6105773382610aa6565b807f07883703ed0e86588a40d76551c92f8a4b329e3bf19765e0e6749473c1a8466560405160405180910390a250565b5f5f6105b1610741565b90506105be8185856107ed565b600191505092915050565b6040518060400160405280600381526020017f4c4c43000000000000000000000000000000000000000000000000000000000081525081565b6040518060400160405280600881526020017f4c754c75436f696e00000000000000000000000000000000000000000000000081525081565b5f60015f8473ffffffffffffffffffffffffffffffffffffffff1673ffffffffffffffffffffffffffffffffffffffff1681526020019081526020015f205f8373ffffffffffffffffffffffffffffffffffffffff1673ffffffffffffffffffffffffffffffffffffffff1681526020019081526020015f2054905092915050565b6106c56108dd565b5f73ffffffffffffffffffffffffffffffffffffffff168173ffffffffffffffffffffffffffffffffffffffff1603610735575f6040517f1e4fbdf700000000000000000000000000000000000000000000000000000000815260040161072c91906111b0565b60405180910390fd5b61073e816109e3565b50565b5f33905090565b6107558383836001610b25565b505050565b5f610765848461063b565b90507fffffffffffffffffffffffffffffffffffffffffffffffffffffffffffffffff8110156107e757818110156107d8578281836040517ffb8f41b20000000000000000000000000000000000000000000000000000000081526004016107cf93929190611264565b60405180910390fd5b6107e684848484035f610b25565b5b50505050565b5f73ffffffffffffffffffffffffffffffffffffffff168373ffffffffffffffffffffffffffffffffffffffff160361085d575f6040517f96c6fd1e00000000000000000000000000000000000000000000000000000000815260040161085491906111b0565b60405180910390fd5b5f73ffffffffffffffffffffffffffffffffffffffff168273ffffffffffffffffffffffffffffffffffffffff16036108cd575f6040517fec442f050000000000000000000000000000000000000000000000000000000081526004016108c491906111b0565b60405180910390fd5b6108d8838383610cf4565b505050565b6108e5610741565b73ffffffffffffffffffffffffffffffffffffffff166109036104ad565b73ffffffffffffffffffffffffffffffffffffffff161461096257610926610741565b6040517f118cdaa700000000000000000000000000000000000000000000000000000000815260040161095991906111b0565b60405180910390fd5b565b5f73ffffffffffffffffffffffffffffffffffffffff168273ffffffffffffffffffffffffffffffffffffffff16036109d4575f6040517f96c6fd1e0000000000000000000000000000000000000000000000000000000081526004016109cb91906111b0565b60405180910390fd5b6109df825f83610cf4565b5050565b5f60055f9054906101000a900473ffffffffffffffffffffffffffffffffffffffff1690508160055f6101000a81548173ffffffffffffffffffffffffffffffffffffffff021916908373ffffffffffffffffffffffffffffffffffffffff1602179055508173ffffffffffffffffffffffffffffffffffffffff168173ffffffffffffffffffffffffffffffffffffffff167f8be0079c531659141344cd1fd0a4f28419497f9722a3daafe3b4186f6b6457e060405160405180910390a35050565b5f73ffffffffffffffffffffffffffffffffffffffff168273ffffffffffffffffffffffffffffffffffffffff1603610b16575f6040517fec442f05000000000000000000000000000000000000000000000000000000008152600401610b0d91906111b0565b60405180910390fd5b610b215f8383610cf4565b5050565b5f73ffffffffffffffffffffffffffffffffffffffff168473ffffffffffffffffffffffffffffffffffffffff1603610b95575f6040517fe602df05000000000000000000000000000000000000000000000000000000008152600401610b8c91906111b0565b60405180910390fd5b5f73ffffffffffffffffffffffffffffffffffffffff168373ffffffffffffffffffffffffffffffffffffffff1603610c05575f6040517f94280d62000000000000000000000000000000000000000000000000000000008152600401610bfc91906111b0565b60405180910390fd5b8160015f8673ffffffffffffffffffffffffffffffffffffffff1673ffffffffffffffffffffffffffffffffffffffff1681526020019081526020015f205f8573ffffffffffffffffffffffffffffffffffffffff1673ffffffffffffffffffffffffffffffffffffffff1681526020019081526020015f20819055508015610cee578273ffffffffffffffffffffffffffffffffffffffff168473ffffffffffffffffffffffffffffffffffffffff167f8c5be1e5ebec7d5bd14f71427d1e84f3dd0314c0f7b2291e5b200ac8c7c3b92584604051610ce591906110ae565b60405180910390a35b50505050565b5f73ffffffffffffffffffffffffffffffffffffffff168373ffffffffffffffffffffffffffffffffffffffff1603610d44578060025f828254610d3891906112c6565b92505081905550610e12565b5f5f5f8573ffffffffffffffffffffffffffffffffffffffff1673ffffffffffffffffffffffffffffffffffffffff1681526020019081526020015f2054905081811015610dcd578381836040517fe450d38c000000000000000000000000000000000000000000000000000000008152600401610dc493929190611264565b60405180910390fd5b8181035f5f8673ffffffffffffffffffffffffffffffffffffffff1673ffffffffffffffffffffffffffffffffffffffff1681526020019081526020015f2081905550505b5f73ffffffffffffffffffffffffffffffffffffffff168273ffffffffffffffffffffffffffffffffffffffff1603610e59578060025f8282540392505081905550610ea3565b805f5f8473ffffffffffffffffffffffffffffffffffffffff1673ffffffffffffffffffffffffffffffffffffffff1681526020019081526020015f205f82825401925050819055505b8173ffffffffffffffffffffffffffffffffffffffff168373ffffffffffffffffffffffffffffffffffffffff167fddf252ad1be2c89b69c2b068fc378daa952ba7f163c4a11628f55a4df523b3ef83604051610f0091906110ae565b60405180910390a3505050565b5f81519050919050565b5f82825260208201905092915050565b8281835e5f83830152505050565b5f601f19601f8301169050919050565b5f610f4f82610f0d565b610f598185610f17565b9350610f69818560208601610f27565b610f7281610f35565b840191505092915050565b5f6020820190508181035f830152610f958184610f45565b905092915050565b5f5ffd5b5f73ffffffffffffffffffffffffffffffffffffffff82169050919050565b5f610fca82610fa1565b9050919050565b610fda81610fc0565b8114610fe4575f5ffd5b50565b5f81359050610ff581610fd1565b92915050565b5f819050919050565b61100d81610ffb565b8114611017575f5ffd5b50565b5f8135905061102881611004565b92915050565b5f5f6040838503121561104457611043610f9d565b5b5f61105185828601610fe7565b92505060206110628582860161101a565b9150509250929050565b5f8115159050919050565b6110808161106c565b82525050565b5f6020820190506110995f830184611077565b92915050565b6110a881610ffb565b82525050565b5f6020820190506110c15f83018461109f565b92915050565b5f5f5f606084860312156110de576110dd610f9d565b5b5f6110eb86828701610fe7565b93505060206110fc86828701610fe7565b925050604061110d8682870161101a565b9150509250925092565b5f60ff82169050919050565b61112c81611117565b82525050565b5f6020820190506111455f830184611123565b92915050565b5f602082840312156111605761115f610f9d565b5b5f61116d8482850161101a565b91505092915050565b5f6020828403121561118b5761118a610f9d565b5b5f61119884828501610fe7565b91505092915050565b6111aa81610fc0565b82525050565b5f6020820190506111c35f8301846111a1565b92915050565b5f5f604083850312156111df576111de610f9d565b5b5f6111ec85828601610fe7565b92505060206111fd85828601610fe7565b9150509250929050565b7f4e487b71000000000000000000000000000000000000000000000000000000005f52602260045260245ffd5b5f600282049050600182168061124b57607f821691505b60208210810361125e5761125d611207565b5b50919050565b5f6060820190506112775f8301866111a1565b611284602083018561109f565b611291604083018461109f565b949350505050565b7f4e487b71000000000000000000000000000000000000000000000000000000005f52601160045260245ffd5b5f6112d082610ffb565b91506112db83610ffb565b92508282019050808211156112f3576112f2611299565b5b9291505056fea26469706673582212200f783e88a45b3bbb467276eb80cd56a2d54bd1c87c84038d255f9cdeb3527bce64736f6c634300081e0033","linkReferences":{}},"methodIdentifiers":{"_name()":"d28d8852","_symbol()":"b09f1266","allowance(address,address)":"dd62ed3e","approve(address,uint256)":"095ea7b3","balanceOf(address)":"70a08231","burn(uint256)":"42966c68","decimals()":"313ce567","mint(uint256)":"a0712d68","name()":"06fdde03","owner()":"8da5cb5b","renounceOwnership()":"715018a6","symbol()":"95d89b41","totalSupply()":"18160ddd","transfer(address,uint256)":"a9059cbb","transferFrom(address,address,uint256)":"23b872dd","transferOwnership(address)":"f2fde38b"},"id":29}